:100000000C941A010C9443010C9443010C94430189
:100010000C9443010C9443010C9443010C94430150
:100020000C9443010C9443010C9443010C94430140
:100030000C9443010C9443010C944C050C94430123
:100040000C9443010C9443010C9443010C94430120
:100050000C9443010C9443010C9443010C94430110
:100060000C9443010C9443010C9443010C94430100
:100070000C9443010C9443010C9443010C944301F0
:100080000C9443010C9443010C9443010C944301E0
:100090000C9443010C9443010C9443010C944301D0
:1000A0000C9443010C9443010C9443010C944301C0
:1000B0000C9443010C9443010C9443010C944301B0
:1000C0000C9443010C9443010C9443010C944301A0
:1000D0000C9443010C9443010C9443010C94430190
:1000E0000C9443010C9443010C9443010C94430180
:1000F0000C9443010C9443010C9443010C94430170
:100100000C9443010C9443010C9443010C9443015F
:100110000C9443010C9443010C9443010C9443014F
:100120000C9443010C9443010C9443010C9443013F
:100130000C9443010C9443010C9443010C9443012F
:100140000C9443010C9443010C9443010C9443011F
:100150000C9443010C9443010C9443010C9443010F
:100160000C9443010C9443010C9443010C944301FF
:100170000C9443010C9443010C9443010C944301EF
:100180000C9443010C9443010C9443010C944301DF
:100190000C9443010C9443010C9443010C944301CF
:1001A0000C9443010C9443010C9443010C944301BF
:1001B0000C94AD130C9443010C9443010C94430133
:1001C0000C9443010C9443010C9443010C9443019F
:1001D0000C9443010C9443010C9443010C9443018F
:1001E0000C9443010C9443010C9443010C9443017F
:1001F0000C9443010C9443010C9443012E112E11D5
:100200002E117B11631178112E112E117B116311A8
:100210000C947B110C9463110C9437030C944C15C3
:100220000C9478110C942E110C9472100C94FB0900
:100230000C94FF1111241FBECFEFCDBFDFE3DEBF53
:1002400000E00CBFEFE0FDE28AEA90E48193E03049
:10025000F907E0F310E2A0E0B0E2E6E1F9E300E044
:100260000BBF02C007900D92A035B107D9F72DE260
:10027000A0E5B0E201C01D92AF30B207E1F70E94E5
:1002800079130C94891C0C9400000F93CF93DF9387
:100290001F92CDB7DEB72FB72983F8941BBEFC01A0
:1002A00008ED04BF608389818FBF0F90DF91CF91EC
:1002B0000F910895611102C090E001C090E2842B7B
:1002C000892B8093520008956F71862B809355007F
:1002D0000895E0E5F0E09081282F20959223908307
:1002E000908189230895682B81E490E00E94450164
:1002F00008950F931F93CF93C82F00E410E0F801E7
:100300006081687F682B80E490E00E944501F801DD
:1003100080818C23CF911F910F910895FC019081D2
:10032000907F692B60830895FC019181987F692BF0
:1003300061830895FC0196819C7F692B66830895F3
:10034000000088ED84BF81E08093790008950E94C9
:10035000A0010895CF93DF9380E190E00E944703CE
:10036000EC01009741F0FC0111921192119211924F
:10037000CF010E946E03CE01DF91CF9108952F929D
:100380003F924F925F926F927F928F929F92AF9225
:10039000BF92CF92DF92EF92FF920F931F93CF9372
:1003A000DF93EC014A015B01622E702E0E94550B17
:1003B000288039804A805B8001110DC081E0B20144
:1003C000A101482159216A217B21452B462B472B2E
:1003D00079F480E00DC081E0B201A10148215921EA
:1003E0006A217B21481559056A057B0509F080E0E3
:1003F000882381F0662009F470C080949094A094C2
:10040000B09482209320A420B52088829982AA8269
:10041000BB8263C0C114D104E104F10409F45DC0DE
:10042000662029F040E050E060E071E003C040E069
:1004300050E0BA0171107460482959296A297B2952
:1004400097018601CE0104960E94840D0E94400C03
:10045000811102C00E94CC040E94C10E91FD39C0DE
:10046000F091A200FF93F87FF093A2006881798158
:100470008A819B8171100DC021E075016401C62243
:10048000D722E822F922CD28CE28CF2879F420E0FF
:100490000DC021E075016401C622D722E822F922AD
:1004A000C814D904EA04FB0409F020E0222371F007
:1004B000662061F080949094A094B0948622972254
:1004C000A822B92288829982AA82BB82FF91F093E6
:1004D000A2001B012C01552402C00E94400CC20145
:1004E000B101DF91CF911F910F91FF90EF90DF90BD
:1004F000CF90BF90AF909F908F907F906F905F90C4
:100500004F903F902F9008950F931F93F091A2006A
:10051000FF93F87FF093A200FC01008111812281FA
:100520003381409550956095709540235123622307
:1005300073234083518362837383FF91F093A200FE
:10054000C901B8011F910F9108954F925F926F9268
:100550007F92AF92BF92CF92DF92EF92FF920F9372
:100560001F93CF93DF93EC016A017B018C01095F3C
:100570001F4F0E94550BEB85FC8588819981AA81CC
:10058000BB81C82AD92AEA2AFB2AC882D982EA82F0
:10059000FB820E171F0709F442C0C12CD12C760133
:1005A000A480B58080819181A281B381AC01BD011D
:1005B0007727B2FD0FC0488059806A807B80442233
:1005C00055226622772221E045284628472889F4CB
:1005D00020E00FC0488059806A807B8044225522E9
:1005E0006622772221E0441655066606770609F052
:1005F00020E0222371F0B0FF04C0C42AD52AE62AE5
:10060000F72A488159816A817B817260CF010E94FB
:100610000C0EEA2DFB2D0E171F0711F603C0C12C7F
:10062000D12C7601C094D094E094F0948881998183
:10063000AA81BB81C822D922EA22FB22C882D982A0
:10064000EA82FB820E94400C688179818A819B81C9
:10065000DF91CF911F910F91FF90EF90DF90CF909E
:10066000BF90AF907F906F905F904F9008950E94E1
:10067000A50208950F931F9389019A01AB01BC0154
:1006800087E393E00E94A1111F910F910895CF93EA
:10069000DF93EC010E94550B2091502030915120A6
:1006A000C9018C0F9D1F883B4BE0940758F4281715
:1006B000390758F4E901CE5ADF4D809350209093CA
:1006C000512005C0C0E0D0E002C0C0E0D0E00E94F0
:1006D000400CCE01DF91CF9108950895FC0103965F
:1006E000818392834FEF5FEFBA0143835483658325
:1006F0007683878390878187928710820895FC0193
:10070000128613860895CF93DF939C01FB01DC01D1
:100710001196CD91DC911297C483D5838E819F81F0
:10072000868397838E819F81DC0114966D937C93E1
:1007300015976E837F8322873387F90180818F5FCE
:100740008083DF91CF9108950F931F93CF93DF9311
:10075000EB01088119812A813B810F3F4FEF14077C
:100760002407340721F4FC01A185B28511C0DC0106
:10077000139601C0DF011496ED91FC91159740810D
:10078000518162817381041715072607370790F797
:100790001496ED91FC911597EC83FD83C683D78366
:1007A000AE83BF831496CD93DC9315978A879B877E
:1007B000FC0120812F5F2083DF91CF911F910F914A
:1007C0000895CF93DF93FC01A285B385C481D581C1
:1007D000868197818E839F83C681D781848195810D
:1007E0008C839D8311968D919C911297E817F90740
:1007F00031F48681978111968D939C93129712867E
:1008000013868C9181508C938C91DF91CF910895B8
:10081000E0EAF0E082819281987F92830895CF92FE
:10082000DF92EF92FF9231E1FC013083319722E2B7
:1008300020833197A3E3A0836B01E12CF12C319746
:1008400060833197D0823197E082319761E3608392
:10085000319760E86083319767E860833197108251
:1008600031971082319762E06083319763E0608353
:10087000319764E06083319765E06083319766E08B
:100880006083319767E06083319768E060833197D8
:1008900069E06083319760E16083319730833197FD
:1008A00032E13083319733E13083319734E1308363
:1008B000319735E13083319736E13083319737E135
:1008C0003083319738E13083319739E13083319784
:1008D00030E23083319731E2308331972083319792
:1008E00023E220836A01319740833197D082319788
:1008F00026E22083319727E22083319728E2208364
:10090000319729E22083319720E320838897FF9055
:10091000EF90DF90CF90089583EF91E080932608C9
:100920009093270865E080E098E00E948E0161E0E6
:1009300080E098E00E949A01A091782CB091792CE7
:100940000D900DBE0D900EBEEF91DF91CF91BF9136
:10095000AF919F918F917F916F915F914F913F9157
:100960002F911F910F91FF90EF90DF90CF90BF904C
:10097000AF909F908F907F906F905F904F903F903F
:100980002F901F900F90FF91F093A200FF91FFBF57
:10099000FF91089581E00895FF93FFB7FF93F091D1
:1009A000A200FF93F87FF093A2000F921F921124F0
:1009B0002F923F924F925F926F927F928F929F926F
:1009C000AF92BF92CF92DF92EF92FF920F931F935D
:1009D0002F933F934F935F936F937F938F939F9347
:1009E000AF93BF93CF93DF93EF93A091782CB09107
:1009F000792C0DB60D920EB60D920E94DE0CA091D0
:100A0000782CB091792C0D900DBE0D900EBEEF910B
:100A1000DF91CF91BF91AF919F918F917F916F9116
:100A20005F914F913F912F911F910F91FF90EF9008
:100A3000DF90CF90BF90AF909F908F907F906F90FE
:100A40005F904F903F902F901F900F90FF91F093E9
:100A5000A200FF91FFBFFF910895CF939091042DC5
:100A6000892B8093042D9091A000913041F09091BA
:100A7000A000923021F09091A000943059F4882386
:100A800049F00E940804C82F1092042D0E94DE0C29
:100A9000C093A200CF910895FF93FFB7FF93F09109
:100AA000A200FF93F87FF093A2000F921F921124EF
:100AB0002F923F924F925F926F927F928F929F926E
:100AC000AF92BF92CF92DF92EF92FF920F931F935C
:100AD0002F933F934F935F936F937F938F939F9346
:100AE000AF93BF93CF93DF93EF93A091782CB09106
:100AF000792C0DB60D920EB60D920E940804C82FE7
:100B00000E946D0BC093A20081E00E942D05A09170
:100B1000782CB091792C0D900DBE0D900EBEEF91FA
:100B2000DF91CF91BF91AF919F918F917F916F9105
:100B30005F914F913F912F911F910F91FF90EF90F7
:100B4000DF90CF90BF90AF909F908F907F906F90ED
:100B50005F904F903F902F901F900F90FF91F093D8
:100B6000A200FF91FFBFFF911895F091A200FF93A3
:100B7000F87FF093A200FC01968DFF91F093A20004
:100B800081E0911180E00895DC01F091A200FF93D3
:100B9000F87FF093A2005E969C915E97FF91F09390
:100BA000A20081E05F962C91291380E008950F93B5
:100BB0001F93CF93DF93EC01042F1E8D48A1442394
:100BC000B9F1011116C050E08C819D810E94441C36
:100BD00028A18C819D81820F911D8C839D832A8108
:100BE0003B818217930720F1888199818C839D83B3
:100BF0001FC050E08E819F810E94441C88A190E01C
:100C00009195819591092E813F81280F391F2E835F
:100C10003F83488159812417350730F42A813B816D
:100C2000820F931F8E839F83023011F41111115094
:100C30001F5F1E8F80E0DF91CF911F910F9108956C
:100C4000FC0140A14423A9F050E026813781240F04
:100C5000351F26833783828193812817390720F037
:100C60008081918186839783CB01668177810E9401
:100C7000441C0895EF92FF920F931F93CF938C0122
:100C8000F091A200FF93F87FF093A200FC01C2A1B3
:100C90001C16ACF48389811106C011C0F801838948
:100CA000811105C00CC07801F3E1EF0EF11CC70102
:100CB0000E94CA0D81110E94AF0EC15079F78FEFCB
:100CC000F80182A3FF91F093A200F091A200FF939C
:100CD000F87FF093A200F801C1A11C16ACF4808546
:100CE000811106C011C0F8018085811105C00CC0BA
:100CF0007801F8E0EF0EF11CC7010E94CA0D8111C6
:100D00000E94AF0EC15079F78FEFF80181A3FF91D8
:100D1000F093A200CF911F910F91FF90EF90089553
:100D2000CF93DF93EC01F091A200FF93F87FF09353
:100D3000A2004881598128A130E07F8D729FC001B7
:100D4000739F900D1124FA01E80FF91FEA83FB83CA
:100D50001E8E4C835D83821B930B840F951F8E83A5
:100D60009F838FEF89A38AA361110CC08885882394
:100D700089F0CE0108960E94CA0D882359F00E947E
:100D8000CC0408C0CE0108960E946E03CE014396A3
:100D90000E946E03FF91F093A20081E0DF91CF915A
:100DA0000895FF920F931F93CF93DF93082F162F71
:100DB000F42E6623C9F0869FC001112485960E94F7
:100DC0004703EC01009749F416C00F8F18A361E0A8
:100DD000CE010E949006FCA20EC08596888399835E
:100DE000F4CFC883D983F1CF85E290E00E94470316
:100DF000EC01892BB1F7CE01DF91CF911F910F91BB
:100E0000FF900895AF92BF92CF92DF92EF92FF9240
:100E10000F931F93CF93DF93CDB7DEB72997CDBF45
:100E2000DEBF7C015B012E833F834887598710E03A
:100E30006C0188E0C80ED11CF091A200FF93F87FEE
:100E4000F093A200F701968D878D981710F002306D
:100E5000D1F4402FB501C7010E94D705F70193894E
:100E6000992349F0C70143960E94CA0D882331F0A7
:100E70000E94CC0403C081110E94CC04FF91F09326
:100E8000A20081E057C08E819F81A885B985892BFA
:100E90008A2B8B2B29F4FF91F093A20080E04AC0AB
:100EA000111105C0CE0101960E94400E11E0FF9184
:100EB000F093A2000E94550BF091A200FF93F87FDF
:100EC000F093A200F70181A18F3F09F411A2F7016D
:100ED00082A18F3F09F412A2FF91F093A200BE01FC
:100EE0006A5F7F4FCE0101960E94510E81111CC096
:100EF000C7010E94C405882389F04E815F816885FF
:100F00007985C6010E946C0DC7010E943A060E94B5
:100F1000400C811191CF0E94CC048ECFC7010E945A
:100F20003A060E94400C88CFC7010E943A060E94F0
:100F3000400C80E02996CDBFDEBFDF91CF911F919D
:100F40000F91FF90EF90DF90CF90BF90AF900895FA
:100F5000AF92BF92CF92DF92FF920F931F93CF93E6
:100F6000DF93EC016B015A01022F0E940804F82E56
:100F70009E8D8F8D981710F00230E1F41AA1402F4A
:100F8000B601CE010E94D7051F3F81F48B898823CB
:100F900099F0CE0143960E94CA0D882379F0A114DE
:100FA000B10471F081E0F50180830BC01F5F1AA3CB
:100FB00081E007C080E005C081E003C081E001C09E
:100FC00081E0F092A200DF91CF911F910F91FF90ED
:100FD000DF90CF90BF90AF900895AF92BF92CF9225
:100FE000DF92EF92FF920F931F93CF93DF93CDB7D2
:100FF000DEB72997CDBFDEBF8C015B012E833F8317
:1010000048875987E12C6C0183E1C80ED11CF0910F
:10101000A200FF93F87FF093A200F801F68CFF2066
:10102000B1F0B501C8010E942006FA94F801F68ECD
:101030008085882339F0C80108960E94CA0D811165
:101040000E94CC04FF91F093A20081E05EC08E81EB
:101050009F81A885B985892B8A2B8B2B29F4FF9139
:10106000F093A20080E051C0E11006C0CE010196CD
:101070000E94400EEE24E394FF91F093A2000E94A0
:10108000550BF091A200FF93F87FF093A200F801B6
:1010900081A18F3F09F411A2F80182A18F3F09F4C9
:1010A00012A2FF91F093A200BE016A5F7F4FCE01B2
:1010B00001960E94510E81111CC0C8010E94B50505
:1010C000882389F04E815F8168857985C6010E94F9
:1010D0006C0DC8010E943A060E94400C811197CF06
:1010E0000E94CC0494CFC8010E943A060E94400C92
:1010F0008ECFC8010E943A060E94400CC8010E948F
:10110000B505882309F483CF80E02996CDBFDEBFE3
:10111000DF91CF911F910F91FF90EF90DF90CF90D3
:10112000BF90AF900895DF92EF92FF920F931F93BD
:10113000CF93DF93CDB7DEB72997CDBFDEBF8C014C
:101140004E835F8368877987D12C7C0183E1E80E29
:10115000F11CF091A200FF93F87FF093A200F80138
:10116000868D882389F08150868F8085882339F089
:10117000C80108960E94CA0D81110E94CC04FF91FB
:10118000F093A20081E05EC08E819F81A885B98521
:10119000892B8A2B8B2B29F4FF91F093A20080E0FE
:1011A00051C0D11006C0CE0101960E94400EDD2430
:1011B000D394FF91F093A2000E94550BF091A200EE
:1011C000FF93F87FF093A200F80181A18F3F09F40B
:1011D00011A2F80182A18F3F09F412A2FF91F093AE
:1011E000A200BE016A5F7F4FCE0101960E94510EA0
:1011F00081111CC0C8010E94B505882389F04E8169
:101200005F8168857985C7010E946C0DC8010E94C5
:101210003A060E94400C81119CCF0E94CC0499CFC9
:10122000C8010E943A060E94400C93CFC8010E9458
:101230003A060E94400CC8010E94B505882309F4B3
:1012400088CF80E02996CDBFDEBFDF91CF911F917F
:101250000F91FF90EF90DF900895F091A200FF931F
:10126000F87FF093A200FC01868DFF91F093A2001D
:101270000895CF93DF93EC01F091A200FF93F87FE4
:10128000F093A20089A18F3F09F419A28AA18F3F90
:1012900009F41AA2FF91F093A2008E8D811104C06F
:1012A000CE0143960E94A90DCE010E943A06DF911D
:1012B000CF910895E091342CF091352C80818111EB
:1012C0000CC08FEF9FEFDC0180930D2C90930E2CC0
:1012D000A0930F2CB093102C0895E091342CF09132
:1012E000352C0780F085E02D0084F185E02D82818A
:1012F0009381A481B58180930D2C90930E2CA093A3
:101300000F2CB093102C08958F929F92AF92BF92A2
:10131000CF92DF92EF92FF92CF936B017C01C42FAB
:101320008090172C9090182CA090192CB0901A2C0B
:101330008091782C9091792C02960E94E1038FEF96
:10134000C816D806E806F80669F4CC2359F060916F
:10135000782C7091792C6E5F7F4F8CE19CE20E941B
:1013600083033FC0C80CD91CEA1CFB1CE091782CFD
:10137000F091792CC282D382E482F582C814D90418
:10138000EA04FB0468F46091782C7091792C8091C8
:10139000322C9091332C6E5F7F4F0E94A40321C0AA
:1013A0006091782C7091792C8091342C9091352C0F
:1013B0006E5F7F4F0E94A40380910D2C90910E2CA4
:1013C000A0910F2CB091102CC816D906EA06FB0686
:1013D00040F4C0920D2CD0920E2CE0920F2CF09283
:1013E000102CCF91FF90EF90DF90CF90BF90AF90F7
:1013F0009F908F900895CCE4DCE28881823010F0D9
:101400000E94CC040E947813F8CF4F925F926F92A3
:101410007F928F929F92AF92BF92CF92DF92EF9284
:10142000FF920F93CF93DF934C016B015A01290177
:10143000CA010E9447033C01892B09F4EAC08CE2EF
:1014400090E00E944703EC01892BB1F06B8E7C8EFB
:10145000A50165EA70E0C3010E944D1C21E0A21ABB
:10146000B1088B8D9C8DA80EB91ED6018C918D8FE5
:101470008C91811105C018C0C3010E946D03C9C0C1
:10148000AE01425E5F4FF6013196B8E0CB0ED11C43
:10149000CF012191DA012D93AD01DC018C918823DC
:1014A00019F0EC15FD05A1F71CA2043008F003E0CB
:1014B0000A8F6E01B2E0CB0ED11CC6010E947F03E1
:1014C000CE010E960E947F03CA87DB8784E090E0FE
:1014D000A0E0B0E0801B9109A109B1098E879F8728
:1014E000A88BB98BCE8BDF8B1FA218A619A61AA6C4
:1014F0001BA6A201B401C5010E940F048883998331
:10150000E114F10419F0F701C083D183F091A20036
:10151000FF93F87FF093A20080911B2C8F5F809344
:101520001B2C8091782C9091792C892BA9F5C09354
:10153000782CD093792C80911B2C8130E9F58CE4A8
:101540009CE20E946E0387E59CE20E946E0382E6A5
:101550009CE20E946E038DE69CE20E946E0381E491
:101560009CE20E946E0386E39CE20E946E0387E287
:101570009CE20E946E038CE19CE20E946E0381E477
:101580009CE28093342C9093352C86E39CE28093EC
:10159000322C9093332C10C08091152C81110CC0EB
:1015A000E091782CF091792C928D8A8D891720F01A
:1015B000C093782CD093792C8091112C8F5F8093DD
:1015C000112C8DA38A8D9091162C981710F480936E
:1015D000162CFBE08F9FC0011124B601845B934D54
:1015E0000E948303FF91F093A2008091152C882321
:1015F00061F0E091782CF091792C928D8A8D98177A
:1016000030F40E94CC0481E005C081E003C081E099
:1016100001C08FEFDF91CF910F91FF90EF90DF909E
:10162000CF90BF90AF909F908F907F906F905F9082
:101630004F900895EF92FF920F930F2EFBE0EF2E45
:10164000FCE2FF2EF02D00E020E030E048EC50E01E
:1016500060E270E28BEF99E00E94050A813009F5A3
:101660000E945F0F8130E9F4E0EAF0E08281887F38
:1016700082838FEF9FEFDC0180930D2C90930E2CD3
:10168000A0930F2CB093102C81E08093152C109216
:10169000172C1092182C1092192C10921A2C0E94B0
:1016A0008C040F91FF90EF90089580910A2C8F5F2A
:1016B00080930A2C0895F091A200FF93F87FF09395
:1016C000A2006091172C7091182C8091192C909188
:1016D0001A2CFF91F093A2000895AF92BF92CF927F
:1016E000DF92EF92FF920F931F93CF93DF9380913E
:1016F0000A2C8111ADC0C090172CD090182CE0900E
:10170000192CF0901A2C8FEFC81AD80AE80AF80A98
:10171000C092172CD092182CE092192CF0921A2C0F
:10172000C114D104E104F104B9F48091342C9091F6
:10173000352C2091322C3091332C2093342C309343
:10174000352C8093322C9093332C8091122C8F5F08
:101750008093122C0E945A0980910D2C90910E2C8E
:10176000A0910F2CB091102CC816D906EA06FB06E2
:1017700010F4B12C5CC0B12C0F2EFBE0AF2EF02D7D
:10178000E091342CF091352C808181110CC08FEFC9
:101790009FEFDC0180930D2C90930E2CA0930F2CC7
:1017A000B093102C44C0E091342CF091352C07807C
:1017B000F085E02DC085D1858A819B81AC81BD817A
:1017C000C816D906EA06FB0648F480930D2C9093C0
:1017D0000E2CA0930F2CB093102C29C08E010E5FFD
:1017E0001F4FC8010E94E103888D998D892B21F03C
:1017F000CE010E960E94E1038A8D9091162C9817C7
:1018000010F48093162CA89EC0011124B801845BAB
:10181000934D0E948303E091782CF091792C9A8D5E
:10182000828D981708F4ACCFBB24B394A9CFE09174
:10183000782CF091792CE28D8BE0E89FF001112457
:10184000E45BF34D8081823048F0BB24B39406C042
:101850008091142C8F5F8093142CB12C8091132CC9
:10186000882311F0BB24B3948B2DDF91CF911F916E
:101870000F91FF90EF90DF90CF90BF90AF900895C1
:10188000CF92DF92EF92FF920F931F93CF93DF934C
:10189000F091A200FF93F87FF093A20080910A2CB0
:1018A000815080930A2C80910A2C81115CC0809118
:1018B0001B2C81112CC05AC0D7011796ED91FC91B9
:1018C0001897C085D185CE010E960E94E1038E0146
:1018D0000E5F1F4FC8010E94E1038A8D9091162C64
:1018E000981710F48093162CD89EC0011124B801CB
:1018F000845B934D0E948303E091782CF091792CC6
:101900009A8D828D981788F0C092132C0EC0C0E07B
:10191000D0E00F2EF7E2EF2EFCE2FF2EF02D0F2E7F
:10192000FBE0DF2EF02DCC24C394F70180818111E0
:10193000C3CFCD2B11F00E945A09C091142CCC2397
:1019400051F0D1E00E946D0B8111D093132CC15046
:10195000C9F71092142C8091132C882331F00E9427
:10196000CC0481E003C080E001C080E0FF91F093EF
:10197000A200DF91CF911F910F91FF90EF90DF9028
:10198000CF900895CF92DF92EF92FF926B017C018E
:10199000672B682B692B59F00E94550B40E0C7015B
:1019A000B6010E9484090E94400C811102C00E946D
:1019B000CC04FF90EF90DF90CF90089580910A2C97
:1019C000882321F081E08093132C08951092132C2A
:1019D000E091782CF091792C038CF48DE02D8081AE
:1019E0009181A281B381853A954AA54AB54AD9F435
:1019F00084819581A681B781853A954AA54AB54AE1
:101A000091F480859185A285B385853A954AA54A4A
:101A1000B54A49F484859585A685B785853A954A62
:101A2000A54AB54A61F06091782C7091792C80912B
:101A3000782C9091792C635E7F4F0E94A701809152
:101A4000162C282F30E09BE0899FF0011124E45BE5
:101A5000F34D908191110EC04BE08150282F30E062
:101A6000429FF001439FF00D1124E45BF34D908100
:101A7000992399F39BE0929FA001939F500D11240D
:101A8000DA01A45BB34D1196ED91FC91129704809D
:101A9000F581E02D1196ED93FC931297415B534D28
:101AA000E417F50729F444815581FD0141835283F0
:101AB0009BE0929FF001939FF00D1124E45BF34DA6
:101AC0000180F281E02D208531852093782C3093A0
:101AD000792C8093162C0895CF92DF92EF92FF928B
:101AE0006A017B016091782C7091792C625F7F4F45
:101AF0000E94A40341E0C701B6010E948409FF903F
:101B0000EF90DF90CF900895CF92DF92EF92FF9207
:101B10000F931F9368017901E091782CF091792C53
:101B2000706846875787608B718B6091782C7091B5
:101B3000792C625F7F4F0E94830341E0C701B601A9
:101B40000E9484091F910F91FF90EF90DF90CF903A
:101B50000895CF92DF92EF92FF92CF936A017B01BB
:101B6000C22F6091782C7091792C625F7F4F0E9418
:101B70008303CC2321F0CC24CA94DC2C76014C2F97
:101B8000C701B6010E948409CF91FF90EF90DF90CA
:101B9000CF9008950F931F93CF93DF93DC01179697
:101BA000ED91FC911897C085D1858E01025F1F4F82
:101BB000C8010E94E10380910A2C811116C00C50CB
:101BC0001109C8010E94E1038A8D9091162C981783
:101BD00010F48093162CBBE08B9FC0011124B80138
:101BE000845B934D0E94830305C0B80187E29CE2A9
:101BF0000E948303E091782CF091792C9A8D828D4C
:101C0000891720F481E08093132C01C080E0DF91DC
:101C1000CF911F910F9108950F931F93CF93DF934F
:101C20007068FC014083518362837383C085D185D2
:101C30000E94E1038E010E5F1F4FC8010E94E10365
:101C40008A8D9091162C981710F48093162CFBE037
:101C50008F9FC0011124B801845B934D0E948303C0
:101C6000E091782CF091792C9A8D828D891718F457
:101C700081E08093132CDF91CF911F910F910895F4
:101C80002091122CFC0120834091172C5091182C8C
:101C90006091192C70911A2C418352836383748351
:101CA0000895CF92DF92EF92FF920F931F93CF93FD
:101CB000DF93DB01F091A200FF93F87FF093A20085
:101CC0004091172C5091182C6091192C70911A2C5E
:101CD0000D911D912D913C9113970F3FCFEF1C0754
:101CE0002C073C0769F1FC01C180D280E380F480BD
:101CF000E091122CEC01F881FE1729F04C155D05DE
:101D00006E057F05F8F44C195D096E097F094017CF
:101D100051076207730768F4FD01041B150B260BBE
:101D2000370B00831183228333830E94400E80E0AF
:101D30000AC01D921D921D921C92139781E003C050
:101D400080E001C081E0FF91F093A200DF91CF918C
:101D50001F910F91FF90EF90DF90CF90089581E059
:101D60008093132C08958091152C882331F0809155
:101D70000A2C882321F080E0089581E0089582E014
:101D80000895CF92DF92EF92FF92E091782CF0913C
:101D9000792C6685778580899189E091782CF091FE
:101DA000792CA091782CB091792C5A962C91C12C39
:101DB000D12C76016894C2F8C21AD108E108F10862
:101DC000C686D786E08AF18AFF90EF90DF90CF90A9
:101DD0000895CF92DF92EF92FF920F931F93FC0131
:101DE000428353836483758382879387041715071F
:101DF00026073707C0F00C191D092E093F098685F3
:101E00009785A089B189081719072A073B0700F5AC
:101E1000BF016E5F7F4F8091822C9091832C0E9436
:101E2000A40380E018C00C151D052E053F0528F4FD
:101E30004C155D056E057F0568F4BF016E5F7F4F31
:101E40008091842C9091852C0E94A40380E003C093
:101E500081E001C081E01F910F91FF90EF90DF9032
:101E6000CF900895F091A200FF93F87FF093A20025
:101E70008091802C9091812C892BE9F481E99CE25E
:101E80000E946E0386E89CE20E946E0381E99CE258
:101E90008093842C9093852C86E89CE28093822CFE
:101EA0009093832C40E069E085E00E94D106809306
:101EB000802C9093812CFF91F093A2000895EF92D3
:101EC000FF920F930E94320F8091802C9091812C71
:101ED000892B91F00F2EFEE7EF2EFCE2FF2EF02D66
:101EE00003E020E030E048EC50E065E270E282E799
:101EF00090E10E94050A01C080E00F91FF90EF90F1
:101F000008958F929F92AF92BF92CF92DF92EF92FD
:101F1000FF920F931F93CF93DF93CDB7DEB729972F
:101F2000CDBFDEBFE091802CF091812C309789F1FC
:101F300069832A833B834C835D838E839F836630D2
:101F4000FCF40E94B30E823069F400E0A701960110
:101F5000BE016F5F7F4F8091802C9091812C0E94F9
:101F6000020718C000E020E030E0A901BE016F5F69
:101F70007F4F8091802C9091812C0E9402070AC093
:101F800020E0A801BE016F5F7F4FCF010E94A8072C
:101F900001C080E02996CDBFDEBFDF91CF911F91B8
:101FA0000F91FF90EF90DF90CF90BF90AF909F90F8
:101FB0008F9008952F923F924F925F926F927F92EF
:101FC0008F929F92AF92BF92CF92DF92EF92FF9249
:101FD0000F931F93CF93DF931C010E945B0B2B0188
:101FE0003C0180917A2C90917B2CA0917C2CB0911B
:101FF0007D2C481659066A067B0608F054C03CC082
:102000000780F085E02D80809180A280B380C0851C
:10201000D1858E010E5F1F4FC8010E94E103ED893B
:10202000FE89CE0119958A89813031F58E859F858B
:10203000A889B989880D991DAA1DBB1D8816990606
:10204000AA06BB0670F48A839B83AC83BD83CA87D0
:10205000DB87B8018091842C9091852C0E94A40389
:102060000BC0C12CD12C760100E010E0A501940139
:1020700060E0CE010E94810FE091842CF091852CCC
:1020800080818111BDCF8091822C9091832C80938F
:10209000842C9093852CE093822CF093832C81E008
:1020A000F101808302C0F101108240927A2C50929B
:1020B0007B2C60927C2C70927D2CC301B201DF914D
:1020C000CF911F910F91FF90EF90DF90CF90BF9035
:1020D000AF909F908F907F906F905F904F903F90C8
:1020E0002F900895CF93DF93CDB7DEB72E97CDBF56
:1020F000DEBFCE0101961C01A82EB32CE091842CEA
:10210000F091852C8081882309F403C10780F08534
:10211000E02D40805180628073800E94550BC10188
:102120000E94DA0F6B877C878D879E87898181115A
:102130005EC08B859C85AD85BE8584159505A605FD
:10214000B705E8F10E94400CE091842CF091852CB9
:102150000780F085E02D80849184C40102960E945E
:10216000E103D40152968C915297813001F51E966D
:102170004D915D916D917C915197440D551D661D5A
:10218000771D730162010B851C852D853E85C40179
:102190000E94E90E882359F0C12CD12C760100E071
:1021A00010E0A301920160E0C4010E94810FD401FC
:1021B0005596ED91FC915697C40119959CC020E06D
:1021C000B301A2018B859C85AD85BE85481B590B4B
:1021D0006A0B7B0B8091802C9091812C0E94390995
:1021E0000E94400C811187C00E94CC0484C00E94D0
:1021F000400C81C0898188236CF44E815F816885A1
:102200007985EA81FB818C819D811995898188235B
:102210000CF471C08E809F80D4011C968D919C918E
:102220001D97892B21F0C40102960E94E103CE0183
:102230000A960E94DA0F8B019C018981082E000CFE
:10224000990BAA0BBB0B8A30910508F054C0FC0116
:102250008827E250FF4F8F4F0C943C1CCA80DB80D4
:10226000EC80FD80F40146855785608971894C0DAD
:102270005D1D6E1D7F1DC4010E94E90E8823D9F1EA
:10228000D4015596ED91FC915697C4011995F4012E
:102290008289813081F54A815B816C817D8186856F
:1022A0009785A089B1899A01AB01280F391F4A1F70
:1022B0005B1FC12CD12C760100E010E060E0C4016E
:1022C0000E94810F18C04A815B816C817D81D4019D
:1022D0001E964D935D936D937C935197400F511FC4
:1022E000621F731F68017901C4010E94E90E03C0D7
:1022F000C4010E946D0320E030E0A9016A2D7B2D0E
:102300008091802C9091812C0E94ED07811172CFD9
:10231000F5CE0E94550BC1010E94DA0F6B877C87B6
:102320008D879E878981811162CFE091822CF09107
:10233000832C808121E0811120E0412C512C32013D
:102340003FCF0F931F93CF93DF93CDB7DEB729977E
:10235000CDBFDEBFEEEFE9838A839B836C837D83F1
:102360002E833F834887598720E0A801BE016F5F15
:102370007F4F8091802C9091812C0E94A8072996F4
:10238000CDBFDEBFDF91CF911F910F910895E0E5A2
:10239000F0E0808181608083818180FFFDCF80E0DB
:1023A0000E9479018EE10E94690160E080E00E9454
:1023B000730143E060E080E40E945A01E0E5F0E050
:1023C000808188608083818183FFFDCF64E080EC21
:1023D0000E946401E0E5F0E080818061808360E03C
:1023E00080E00E947301E0E5F0E0818184FFFDCF91
:1023F00084E00E94790187E00E9469010895CF93EB
:10240000DF93CDB7DEB7C054D109CDBFDEBF0F2EED
:10241000FCEF2F2EFCE23F2EF02D0F2EFFE2AF2E11
:10242000F0E2BF2EF02D0F2EFDE2CF2EF0E2DF2ED8
:10243000F02D0F2EFCE98F2EFCE29F2EF02D80E276
:10244000E0E0F0E2DE01919601900D928A95E1F7CD
:1024500080E2E0E0F0E2DE01119601900D928A95B3
:10246000E1F74FEF5FEFBA018091072D9091082DB2
:102470000E949308882309F42AC1ACEBBCE2FE0158
:10248000B19631C0819190E09C01225031092830F1
:10249000310590F02A5031092830310578F02A5062
:1024A00031092830310568F08097089768F40F2EBD
:1024B000F3E04F2EF02D08C0412C06C04424439475
:1024C00003C06894442441F8550C550C842D837046
:1024D000582A4E175F07B1F65D92FA0184EC9CE230
:1024E0008A179B0721F0AF014C5F5F4FCBCF00E015
:1024F00020E030E0A90160E070E08091072D90912C
:10250000082D0E940207E3C0819190E09C012250B7
:1025100031092830310590F02A5031092830310531
:1025200078F02A5031092830310568F080970897F3
:1025300068F40F2EF3E04F2EF02D08C0412C06C09A
:102540004424439403C06894442441F8550C550C2A
:10255000842D8370582A4E175F07B1F65D92FA01F9
:1025600084EA9CE28A179B0721F0AF014D5F5F4F21
:10257000CBCF00E020E030E0A90160E070E0809186
:10258000092D90910A2D0E9402070F2EFCEB6F2E51
:10259000FCE27F2EF02D45C0F70181917F0190E094
:1025A000002E02C0880F991F0A94E2F787FF17C018
:1025B0000E942A16DF92CF921F921F921F921F92A3
:1025C0000E94351668EE73E080E090E00E94C20C35
:1025D0000F900F900F900F900F900F9016C00E94C9
:1025E0002A16BF92AF921F921F921F921F920E94B3
:1025F000351668EE73E080E090E00E94C20C0F9008
:102600000F900F900F900F900F900F5F1F4F08309B
:10261000110511F6F8E06F0E711C2614370409F449
:1026200046C0730100E010E0B7CFF401808190E074
:10263000002E02C0880F991F0A94E2F787FF17C087
:102640000E942A16DF92CF921F921F921F927F92B2
:102650000E94351668EE73E080E090E00E94C20CA4
:102660000F900F900F900F900F900F9016C00E9438
:102670002A16BF92AF921F921F921F927F920E94C2
:10268000351668EE73E080E090E00E94C20C0F9077
:102690000F900F900F900F900F900F5F1F4F08300B
:1026A000110519F6F1E0EF1AF10839F409C0689440
:1026B000EE24E3F8F12C7724739400E010E0B5CF1A
:1026C00068EE73E080E090E00E94C20CB8CE4FEF5D
:1026D0005FEFBA018091092D90910A2D0E94930815
:1026E000882309F452CFACE9BCE2FE0131963DCF1C
:1026F0000895EF92FF920F930E94D8190E94C7117C
:102700000E94AE140F2EF5E0EF2EFDE2FF2EF02D0D
:1027100001E020E030E042ED50E061E370E28FEF55
:1027200091E10E94050A0E942A168BE390E29F9392
:102730008F931F921F921F921F920E9435160E9424
:102740001A0B0F900F900F900F900F900F9080E04A
:1027500090E00F91FF90EF9008951F920F920FB6A7
:102760000F9211240BB60F922F933F934F935F93C9
:102770006F937F938F939F93AF93BF93EF93FF9349
:10278000CF93DF931F92CDB7DEB719829E012F5FE3
:102790003F4F41E050E060E070E080910D2D90915E
:1027A0000E2D0E943A0360E080E09BE00E948E01C3
:1027B0001092060B0F90DF91CF91FF91EF91BF9197
:1027C000AF919F918F917F916F915F914F913F91C9
:1027D0002F910F900BBE0F900FBE0F901F9018956A
:1027E000CF92DF92EF92FF920F936B017C0182E018
:1027F000C816D104E104F10408F44EC0E0E0FBE0A7
:1028000081E0868310A211A260E080E09BE00E943C
:1028100094018EEFC8168FEFD806E104F10470F42E
:10282000F694E794D794C794C092260BD092270BC6
:1028300065E080E09BE00E948E0119C080E4C8162C
:1028400082E4D8068FE0E806F10488F4689414F86E
:10285000F694E794D794C7941694D1F7C092260BB8
:10286000D092270B67E080E09BE00E948E010F2E44
:10287000F4EFCF2EDD24D394E12CF12CF02D00E0E9
:1028800021E041E050E060E070E080910D2D9091FA
:102890000E2D0E94BF0111C0E0E0FBE081E08683C5
:1028A00010A211A260E080E09BE00E949401C12C84
:1028B000D12C76016894C1F8B3CF0F91FF90EF90BF
:1028C000DF90CF9008958295807FE0E0F6E09481DC
:1028D000282F2F60922394839481892B84830895D9
:1028E0001F93CF93DF93C0E6D6E014E01D8361E031
:1028F00070E080E090E00E94F0131E83DF91CF91A2
:102900001F910895CF93C82F82958F700E946314F2
:10291000E0E6F6E081E0868382E086830E94701420
:102920008C2F8F700E9463140E947014CF910895B1
:10293000CF93C82F82958F700E946314E0E6F6E073
:1029400081E0858382E086830E9470148C2F8F70D3
:102950000E9463140E947014CF910895EF92FF9229
:102960000F93E0E0F6E080E1818380E2818380E400
:10297000818380E88183A0E6B6E081E011968C93A4
:10298000119782E011968C93119784E011968C93A5
:10299000119784818F70848314968C911497887F0B
:1029A00014968C9340E066E188E00E94D106809303
:1029B0000B2D90930C2D0E94AA0180930D2D9093C6
:1029C0000E2DE12CF12C01E020E030E04EE551E04D
:1029D00064E470E28CE495E10E94050A0F91FF9097
:1029E000EF9008958130910579F01CF4892B39F02E
:1029F00019C08230910569F0039781F013C080E817
:102A0000860F0E9482140EC080EC860F0E948214F2
:102A100009C084E9860F0E94821404C084ED860FE9
:102A20000E94821467E270E080E090E00E94F01360
:102A300008950E9498146BE270E080E090E00E949C
:102A4000F01308950F931F93CF93DF93FC018081C0
:102A500081110AC011C08991882371F00E94191553
:102A60000C171D07C1F708C08F010E941915E80156
:102A700021960C5E1F4FEFCFDF91CF911F910F91E9
:102A80000895CF93DF93EA010E94F214CE010E94D1
:102A90002215DF91CF910895CF93DF93CDB7DEB7A5
:102AA000C656D109CDBFDEBF5E0141E5A40EB11C03
:102AB000FE01319620E208C02193E817F907E1F7FB
:102AC000FC01A816B90619F0CF014496F5CF60E4D1
:102AD0007CE980E090E00E94F01383E00E946314A0
:102AE00068E873E180E090E00E94F0130E947014A7
:102AF00060EA70E080E090E00E94F0130E947014A1
:102B000060EA70E080E090E00E94F0130E94701490
:102B100060EA70E080E090E00E94F01382E00E94A2
:102B200063140E94701488E20E94821480E10E9463
:102B300082148CE00E94821486E00E94821410E2CB
:102B40006E0151E5C50ED11C0F2EF4E14F2EF02D74
:102B50000F2EF6E18F2E912CF02D5C2C0D2D68ECB4
:102B600070E080E090E00E94C20C40E050E0BA01CA
:102B700080910D2D90910E2D0E948402672B682B61
:102B8000692B09F449C042E050E060E070E08091B8
:102B90000D2D90910E2D0E948402FE01319608C0E9
:102BA0001193E817F907E1F7FC018A159B05A1F1DC
:102BB000CF014496F5CF2FEF3FEFA901652D702F80
:102BC00080910B2D90910C2D0E94ED07882321F10F
:102BD000F6012181822F90E04497F4F482818823CA
:102BE000D9F0908130E0D901499EA00DB11D11248A
:102BF00041E050E04C0F5D1FA40FB51F3396A401B8
:102C0000421B530B9A012C0D3D1D8D93E217F307C8
:102C100019F081918111F9CF80910B2D90910C2D9C
:102C20000E942D098111C7CFCE0101967C01612C34
:102C3000712CA70160E070E0C3010E9441159FEF75
:102C4000691A790AE4E1EE0EF11CF4E06F167104E2
:102C500081F785CF42E050E060E070E080910D2D7B
:102C600090910E2D0E94A50208952F923F924F92AF
:102C70005F926F927F928F929F92AF92BF92CF920C
:102C8000DF92EF92FF920F931F93CF93DF93CDB715
:102C9000DEB76D97CDBFDEBF2BA92B8FAFA9B8AD27
:102CA0007E0139E3E30EF11C24E03DE2E0EFFCE2BB
:102CB0001192E217F307E1F70F2EFCEDAF2EFCE2C5
:102CC000BF2EF02D20EF3CE2F5011192E217F30741
:102CD000E1F7812C912C0F2EF0EFCF2EFCE2DF2EAE
:102CE000F02DFCC2853209F0E8C22D0182E0480EC9
:102CF000511C11968C91853609F4DBC138F483366A
:102D0000C1F008F048C0853251F0E7C28337F9F0CE
:102D1000883709F468C0863609F0DFC28CC0F40138
:102D2000E452F34D95E29083AFEF8A1A9A0AD201EA
:102D3000D5C2F401E452F34DD7018C918083BFEFEB
:102D40008B1A9B0AF70132967F01D201C7C2A701F5
:102D50004E5F5F4FD7018D919C919C01B401F401AE
:102D6000E452F34D00E010E006C0D901FD909D0152
:102D7000F1920F5F1F4FDC010D900020E9F71197D2
:102D8000A81BB90B0A171B0780F34D01860E971E6F
:102D90007A01D201A3C287010E5F1F4F4AE0B6013C
:102DA000F701808191810E94541C9401D401A452A6
:102DB000B34D40EF5CE280E090E005C0FA01619124
:102DC000AF016D930196F60101900020E9F731976C
:102DD000E05FFC428E179F0788F34F01820E931E1F
:102DE0007801D2017BC287010E5F1F4F40E1B6011F
:102DF000D7018D919C910E94541C9401F401E452DE
:102E0000F34D40EF5CE280E090E005C0DA016D91A7
:102E1000AD0161930196D6010D900020E9F711975D
:102E2000A05FBC428A179B0788F34D01820E931E58
:102E30007801D20153C21701B4E02B0E311CD70127
:102E40008D919D910D90BC91A02D8F8B988FA98F06
:102E5000BA8F20E030E0A901BC01CD010E946B1ABD
:102E6000811105C020E3F6012083118204C120E016
:102E700030E0A9016F89788D898D9A8D0E946B1A37
:102E800088239CF4EDE2D601EC938F89988DA98D6F
:102E9000BA8DB0588F8B988FA98FBA8F0F2EF1EF04
:102EA0006F2EFCE27F2EF02D01C0360120E030E0D5
:102EB00040E85FE36F89788D898D9A8D0E94CA1BE7
:102EC00088230CF444C200E010E020E030E040E24F
:102ED00051E46F89788D898D9A8D0E94701A6F8B5D
:102EE000788F898F9A8F0F5F1F4F20E030E040E886
:102EF0005FE30E94CA1B882344F72DEC3CEC4CECAA
:102F00005DE36F89788D898D9A8D0E946B1A882375
:102F10001CF01AC000E010E020E030E040E251E494
:102F20006F89788D898D9A8D0E94CF1B6F8B788FDA
:102F3000898F9A8F015011092DEC3CEC4CEC5DE32C
:102F40000E946B1A882344F310161106ACF5730126
:102F5000D301A00FB11FAC8FBD8F3D016F89788D5C
:102F6000898D9A8D20E030E040E251E40E94CF1B31
:102F70006F8B788F898F9A8F0E94E21A20E3260F39
:102F8000F70121937F01072E000C880B990B0E94FB
:102F90001A1B9B01AC016F89788D898D9A8D0E94D7
:102FA000FE19E614F704F1F66F8B788F898F9A8FEC
:102FB0000115110589F4DBC1C801E0E3D301EC93ED
:102FC0007301F2E0EF0EF11C2EE211962C9399237F
:102FD0006CF000E010E01FC0EC8CFD8C3FEFE31ABA
:102FE000F30AEEE2AC8DBD8DEC9312C000E010E070
:102FF000FFEFEF1AFF0AF701319720E320830197D3
:103000000F5F1F4F992324F4043011058CF331C056
:103010000430110574F5370184E090E0801B910BBA
:10302000E80EF91E87016F89788D898D9A8D20E0D1
:1030300030E040E251E40E94CF1B6F8B788F898F84
:103040009A8F0E94E21A20E3260FD3012D933D01AF
:10305000072E000C880B990B0E941A1B9B01AC01D8
:103060006F89788D898D9A8D0E94FE196016710680
:10307000F1F6F70110829401F401E452F34D40EFB0
:103080005CE280E090E005C0DA016D91AD016193F2
:103090000196D6010D900020E9F71197A05FBC4280
:1030A0008A179B0788F34D01820E931E7101D2018E
:1030B00015C11701B4E02B0E311CD7018D919D91E4
:1030C0000D90BC91A02D8F8B988FA98FBA8F20E087
:1030D00030E0A901BC01CD010E946B1A811105C02D
:1030E00020E3F60120831182CAC020E030E0A9016C
:1030F0006F89788D898D9A8D0E946B1A88239CF434
:10310000EDE2D601EC938F89988DA98DBA8DB058D8
:103110008F8B988FA98FBA8F0F2EF1EF6F2EFCE255
:103120007F2EF02D01C0360120E030E040E85FE363
:103130006F89788D898D9A8D0E94CA1B8823DCF057
:1031400000E010E020E030E040E251E46F89788D4B
:10315000898D9A8D0E94701A6F8B788F898F9A8FC4
:103160000F5F1F4F20E030E040E85FE30E94CA1B82
:10317000882344F702C000E010E02DEC3CEC4CEC5E
:103180005DE36F89788D898D9A8D0E946B1A8823F3
:10319000C4F420E030E040E251E46F89788D898DFD
:1031A0009A8D0E94CF1B6F8B788F898F9A8F0150D9
:1031B00011092DEC3CEC4CEC5DE30E946B1A88236A
:1031C00044F320E030E040E251E46F89788D898D4E
:1031D0009A8D0E94CF1B6F8B788F898F9A8F0E9458
:1031E000E21A20E3260FD3012C93072E000C880B44
:1031F000990B0E941A1B9B01AC016F89788D898DF8
:103200009A8D0E94FE19F8013197EC8FFD8FEEE246
:10321000D3011196EC9383010E5F1F4F7301F6E00B
:10322000EF0EF11C20E030E040E251E40E94CF1BA1
:103230006F8B788F898F9A8F0E94E21A20E3260F76
:10324000D8012D938D01072E000C880B990B0E943D
:103250001A1B9B01AC016F89788D898D9A8D0E9414
:10326000FE190E151F05F1F625E6F3012683B301BD
:10327000695F7F4F4AE08C8D9D8D0E94541C9401A4
:10328000F401E452F34D40EF5CE280E090E005C0D1
:10329000DA016D91AD0161930196D6010D90002088
:1032A000E9F71197A05FBC428A179B0788F34D018D
:1032B000820E931E7101D20111C08A3029F0F401EF
:1032C000E452F34D808304C0F401E452F34D1082C4
:1032D0001196EFEF8E1A9E0A01C0D2018C918111D6
:1032E00001CD8DA99EA9880D991D44973CF084E1DC
:1032F00090E04C012DA93EA9821A930AFE01339653
:10330000CE014796DF011D92A817B907E1F73B8D63
:1033100039838DA98A83181419045CF4CE01880DB1
:10332000991D0396D5012D915D0121938E179F075D
:10333000C9F700E02FEF3FEFA901BE016F5F7F4F9C
:1033400080910B2D90910C2D0E9402071BC02DEC3B
:103350003CEC4CEC5DE36F89788D898D9A8D0E94F1
:103360006B1A88230CF4D6CD80E090E026CE20E3C3
:10337000EC8DFD8D20837F0132E0E30EF11C8EE2A7
:10338000818346CE6D96CDBFDEBFDF91CF911F9179
:103390000F91FF90EF90DF90CF90BF90AF909F90F4
:1033A0008F907F906F905F904F903F902F900895F7
:1033B0008091780085FF05C080E28093780081E0ED
:1033C00008958091780080FF05C081E080937800A7
:1033D00082E008958091780084FF05C080E18093A9
:1033E000780083E008958091780081FF05C082E035
:1033F0008093780084E0089582E008955058BB27B8
:10340000AA270E94161A0C94901B0E94821B38F067
:103410000E94891B20F039F49F3F19F426F40C9484
:103420007F1B0EF4E095E7FB0C94791BE92F0E94BB
:10343000A11B58F3BA17620773078407950720F09A
:1034400079F4A6F50C94C31B0EF4E0950B2EBA2F5D
:10345000A02D0B01B90190010C01CA01A00111249A
:10346000FF27591B99F0593F50F4503E68F11A1646
:10347000F040A22F232F342F4427585FF3CF4695D7
:1034800037952795A795F0405395C9F77EF41F16F9
:10349000BA0B620B730B840BBAF09150A1F0FF0FC3
:1034A000BB1F661F771F881FC2F70EC0BA0F621FAF
:1034B000731F841F48F4879577956795B795F7959F
:1034C0009E3F08F0B0CF9395880F08F09927EE0F34
:1034D0009795879508950E94551B08F481E00895FB
:1034E0000E94841A0C94901B0E94891B58F00E9421
:1034F000821B40F029F45F3F29F00C94791B511195
:103500000C94C41B0C947F1B0E94A11B68F399238D
:10351000B1F3552391F3951B550BBB27AA276217CF
:103520007307840738F09F5F5F4F220F331F441FDC
:10353000AA1FA9F335D00E2E3AF0E0E832D0915010
:103540005040E695001CCAF72BD0FE2F29D0660FFD
:10355000771F881FBB1F261737074807AB07B0E840
:1035600009F0BB0B802DBF01FF2793585F4F3AF046
:103570009E3F510578F00C94791B0C94C41B5F3F5F
:10358000E4F3983ED4F3869577956795B795F795CC
:103590009F5FC9F7880F911D9695879597F90895B4
:1035A000E1E0660F771F881FBB1F62177307840750
:1035B000BA0720F0621B730B840BBA0BEE1F88F75F
:1035C000E09508950E94E91A6894B1110C94C41B07
:1035D00008950E94A91B88F09F5798F0B92F99274A
:1035E000B751B0F0E1F0660F771F881F991F1AF0EE
:1035F000BA95C9F714C0B13091F00E94C31BB1E075
:1036000008950C94C31B672F782F8827B85F39F073
:10361000B93FCCF3869577956795B395D9F73EF486
:1036200090958095709561957F4F8F4F9F4F08952E
:10363000E89409C097FB3EF490958095709561954C
:103640007F4F8F4F9F4F9923A9F0F92F96E9BB2702
:103650009395F695879577956795B795F111F8CF7E
:10366000FAF4BB0F11F460FF1BC06F5F7F4F8F4FE9
:103670009F4F16C0882311F096E911C0772321F0DF
:103680009EE8872F762F05C0662371F096E8862F77
:1036900070E060E02AF09A95660F771F881FDAF7CE
:1036A000880F9695879597F90895990F0008550FFB
:1036B000AA0BE0E8FEEF16161706E807F907C0F0B8
:1036C00012161306E407F50798F0621B730B840BC0
:1036D000950B39F40A2661F0232B242B252B21F49A
:1036E00008950A2609F4A140A6958FEF811D811D3A
:1036F000089597F99F6780E870E060E008959FEF74
:1037000080EC089500240A94161617061806090678
:10371000089500240A941216130614060506089547
:10372000092E0394000C11F4882352F0BB0F40F4CF
:10373000BF2B11F460FF04C06F5F7F4F8F4F9F4F0F
:10374000089557FD9058440F551F59F05F3F71F091
:103750004795880F97FB991F61F09F3F79F08795F8
:103760000895121613061406551FF2CF4695F1DF81
:1037700008C0161617061806991FF1CF8695710511
:10378000610508940895E894BB2766277727CB0145
:1037900097F908950E94551B08F48FEF08950E9431
:1037A000E21B0C94901B0E94821B38F00E94891B24
:1037B00020F0952311F00C94791B0C947F1B11249D
:1037C0000C94C41B0E94A11B70F3959FC1F3950F2D
:1037D00050E0551F629FF001729FBB27F00DB11D95
:1037E000639FAA27F00DB11DAA1F649F6627B00D25
:1037F000A11D661F829F2227B00DA11D621F739F0E
:10380000B00DA11D621F839FA00D611D221F749F1B
:103810003327A00D611D231F849F600D211D822F62
:10382000762F6A2F11249F5750409AF0F1F0882389
:103830004AF0EE0FFF1FBB1F661F771F881F9150B6
:103840005040A9F79E3F510580F00C94791B0C94D1
:10385000C41B5F3FE4F3983ED4F386957795679554
:10386000B795F795E7959F5FC1F7FE2B880F911DE0
:103870009695879597F90895EE0FFF1F881F8BBFC8
:103880000790F691E02D1994FB01DC0102C0019034
:103890000D9241505040D8F70895DC0101C06D935E
:1038A00041505040E0F70895BB274A3031F4992346
:1038B00022F4BDE2909581959F4F0C94601CBB272C
:1038C000FB015527AA27880F991FAA1FA41710F0DC
:1038D000A41B83955051B9F7A05DAA3308F0A95DE8
:1038E000A193009779F7B111B1931192CB010C9488
:1038F000791CDC01FC01672F71917723E1F7329786
:1039000004C07C916D9370836291AE17BF07C8F3BA
:063910000895F894FFCFBA
:103916001919191919191919191919191919191911
:103926001919191919191919191919191919191901
:1039360049444C4500546D72205376630031003083
:10394600005065616B746F62696E0051414D2D5474
:103956006573740064697370557064617465000002
:00000001FF
